{
  "abi": [
    {
      "type": "constructor",
      "inputs": [],
      "stateMutability": "nonpayable"
    },
    {
      "type": "function",
      "name": "approve",
      "inputs": [
        {
          "name": "to",
          "type": "address",
          "internalType": "address"
        },
        {
          "name": "tokenId",
          "type": "uint256",
          "internalType": "uint256"
        }
      ],
      "outputs": [],
      "stateMutability": "nonpayable"
    },
    {
      "type": "function",
      "name": "balanceOf",
      "inputs": [
        {
          "name": "owner",
          "type": "address",
          "internalType": "address"
        }
      ],
      "outputs": [
        {
          "name": "",
          "type": "uint256",
          "internalType": "uint256"
        }
      ],
      "stateMutability": "view"
    },
    {
      "type": "function",
      "name": "getApproved",
      "inputs": [
        {
          "name": "tokenId",
          "type": "uint256",
          "internalType": "uint256"
        }
      ],
      "outputs": [
        {
          "name": "",
          "type": "address",
          "internalType": "address"
        }
      ],
      "stateMutability": "view"
    },
    {
      "type": "function",
      "name": "isApprovedForAll",
      "inputs": [
        {
          "name": "owner",
          "type": "address",
          "internalType": "address"
        },
        {
          "name": "operator",
          "type": "address",
          "internalType": "address"
        }
      ],
      "outputs": [
        {
          "name": "",
          "type": "bool",
          "internalType": "bool"
        }
      ],
      "stateMutability": "view"
    },
    {
      "type": "function",
      "name": "mint",
      "inputs": [
        {
          "name": "player",
          "type": "address",
          "internalType": "address"
        },
        {
          "name": "_tokenURI",
          "type": "string",
          "internalType": "string"
        }
      ],
      "outputs": [
        {
          "name": "",
          "type": "uint256",
          "internalType": "uint256"
        }
      ],
      "stateMutability": "nonpayable"
    },
    {
      "type": "function",
      "name": "name",
      "inputs": [],
      "outputs": [
        {
          "name": "",
          "type": "string",
          "internalType": "string"
        }
      ],
      "stateMutability": "view"
    },
    {
      "type": "function",
      "name": "ownerOf",
      "inputs": [
        {
          "name": "tokenId",
          "type": "uint256",
          "internalType": "uint256"
        }
      ],
      "outputs": [
        {
          "name": "",
          "type": "address",
          "internalType": "address"
        }
      ],
      "stateMutability": "view"
    },
    {
      "type": "function",
      "name": "safeTransferFrom",
      "inputs": [
        {
          "name": "from",
          "type": "address",
          "internalType": "address"
        },
        {
          "name": "to",
          "type": "address",
          "internalType": "address"
        },
        {
          "name": "tokenId",
          "type": "uint256",
          "internalType": "uint256"
        }
      ],
      "outputs": [],
      "stateMutability": "nonpayable"
    },
    {
      "type": "function",
      "name": "safeTransferFrom",
      "inputs": [
        {
          "name": "from",
          "type": "address",
          "internalType": "address"
        },
        {
          "name": "to",
          "type": "address",
          "internalType": "address"
        },
        {
          "name": "tokenId",
          "type": "uint256",
          "internalType": "uint256"
        },
        {
          "name": "data",
          "type": "bytes",
          "internalType": "bytes"
        }
      ],
      "outputs": [],
      "stateMutability": "nonpayable"
    },
    {
      "type": "function",
      "name": "setApprovalForAll",
      "inputs": [
        {
          "name": "operator",
          "type": "address",
          "internalType": "address"
        },
        {
          "name": "approved",
          "type": "bool",
          "internalType": "bool"
        }
      ],
      "outputs": [],
      "stateMutability": "nonpayable"
    },
    {
      "type": "function",
      "name": "setSecretMessage",
      "inputs": [
        {
          "name": "tokenId",
          "type": "uint256",
          "internalType": "uint256"
        },
        {
          "name": "secretMessagee",
          "type": "uint256",
          "internalType": "ebytes256"
        }
      ],
      "outputs": [],
      "stateMutability": "nonpayable"
    },
    {
      "type": "function",
      "name": "supportsInterface",
      "inputs": [
        {
          "name": "interfaceId",
          "type": "bytes4",
          "internalType": "bytes4"
        }
      ],
      "outputs": [
        {
          "name": "",
          "type": "bool",
          "internalType": "bool"
        }
      ],
      "stateMutability": "view"
    },
    {
      "type": "function",
      "name": "symbol",
      "inputs": [],
      "outputs": [
        {
          "name": "",
          "type": "string",
          "internalType": "string"
        }
      ],
      "stateMutability": "view"
    },
    {
      "type": "function",
      "name": "tokenURI",
      "inputs": [
        {
          "name": "tokenId",
          "type": "uint256",
          "internalType": "uint256"
        }
      ],
      "outputs": [
        {
          "name": "",
          "type": "string",
          "internalType": "string"
        }
      ],
      "stateMutability": "view"
    },
    {
      "type": "function",
      "name": "transferFrom",
      "inputs": [
        {
          "name": "from",
          "type": "address",
          "internalType": "address"
        },
        {
          "name": "to",
          "type": "address",
          "internalType": "address"
        },
        {
          "name": "tokenId",
          "type": "uint256",
          "internalType": "uint256"
        }
      ],
      "outputs": [],
      "stateMutability": "nonpayable"
    },
    {
      "type": "event",
      "name": "Approval",
      "inputs": [
        {
          "name": "owner",
          "type": "address",
          "indexed": true,
          "internalType": "address"
        },
        {
          "name": "approved",
          "type": "address",
          "indexed": true,
          "internalType": "address"
        },
        {
          "name": "tokenId",
          "type": "uint256",
          "indexed": true,
          "internalType": "uint256"
        }
      ],
      "anonymous": false
    },
    {
      "type": "event",
      "name": "ApprovalForAll",
      "inputs": [
        {
          "name": "owner",
          "type": "address",
          "indexed": true,
          "internalType": "address"
        },
        {
          "name": "operator",
          "type": "address",
          "indexed": true,
          "internalType": "address"
        },
        {
          "name": "approved",
          "type": "bool",
          "indexed": false,
          "internalType": "bool"
        }
      ],
      "anonymous": false
    },
    {
      "type": "event",
      "name": "BatchMetadataUpdate",
      "inputs": [
        {
          "name": "_fromTokenId",
          "type": "uint256",
          "indexed": false,
          "internalType": "uint256"
        },
        {
          "name": "_toTokenId",
          "type": "uint256",
          "indexed": false,
          "internalType": "uint256"
        }
      ],
      "anonymous": false
    },
    {
      "type": "event",
      "name": "MetadataUpdate",
      "inputs": [
        {
          "name": "_tokenId",
          "type": "uint256",
          "indexed": false,
          "internalType": "uint256"
        }
      ],
      "anonymous": false
    },
    {
      "type": "event",
      "name": "Transfer",
      "inputs": [
        {
          "name": "from",
          "type": "address",
          "indexed": true,
          "internalType": "address"
        },
        {
          "name": "to",
          "type": "address",
          "indexed": true,
          "internalType": "address"
        },
        {
          "name": "tokenId",
          "type": "uint256",
          "indexed": true,
          "internalType": "uint256"
        }
      ],
      "anonymous": false
    },
    {
      "type": "error",
      "name": "ERC721IncorrectOwner",
      "inputs": [
        {
          "name": "sender",
          "type": "address",
          "internalType": "address"
        },
        {
          "name": "tokenId",
          "type": "uint256",
          "internalType": "uint256"
        },
        {
          "name": "owner",
          "type": "address",
          "internalType": "address"
        }
      ]
    },
    {
      "type": "error",
      "name": "ERC721InsufficientApproval",
      "inputs": [
        {
          "name": "operator",
          "type": "address",
          "internalType": "address"
        },
        {
          "name": "tokenId",
          "type": "uint256",
          "internalType": "uint256"
        }
      ]
    },
    {
      "type": "error",
      "name": "ERC721InvalidApprover",
      "inputs": [
        {
          "name": "approver",
          "type": "address",
          "internalType": "address"
        }
      ]
    },
    {
      "type": "error",
      "name": "ERC721InvalidOperator",
      "inputs": [
        {
          "name": "operator",
          "type": "address",
          "internalType": "address"
        }
      ]
    },
    {
      "type": "error",
      "name": "ERC721InvalidOwner",
      "inputs": [
        {
          "name": "owner",
          "type": "address",
          "internalType": "address"
        }
      ]
    },
    {
      "type": "error",
      "name": "ERC721InvalidReceiver",
      "inputs": [
        {
          "name": "receiver",
          "type": "address",
          "internalType": "address"
        }
      ]
    },
    {
      "type": "error",
      "name": "ERC721InvalidSender",
      "inputs": [
        {
          "name": "sender",
          "type": "address",
          "internalType": "address"
        }
      ]
    },
    {
      "type": "error",
      "name": "ERC721NonexistentToken",
      "inputs": [
        {
          "name": "tokenId",
          "type": "uint256",
          "internalType": "uint256"
        }
      ]
    }
  ],
  "bytecode": {
    "object": "0x608060405234801561000f575f80fd5b506040518060400160405280601581526020017f436f6e666964656e7469616c56616c656e74696e6500000000000000000000008152506040518060400160405280600481526020016310d3919560e21b81525081600a9081610072919061011f565b50600b61007f828261011f565b5050506101d9565b634e487b7160e01b5f52604160045260245ffd5b600181811c908216806100af57607f821691505b6020821081036100cd57634e487b7160e01b5f52602260045260245ffd5b50919050565b601f82111561011a57805f5260205f20601f840160051c810160208510156100f85750805b601f840160051c820191505b81811015610117575f8155600101610104565b50505b505050565b81516001600160401b0381111561013857610138610087565b61014c81610146845461009b565b846100d3565b6020601f82116001811461017e575f83156101675750848201515b5f19600385901b1c1916600184901b178455610117565b5f84815260208120601f198516915b828110156101ad578785015182556020948501946001909201910161018d565b50848210156101ca57868401515f19600387901b60f8161c191681555b50505050600190811b01905550565b6115cc806101e65f395ff3fe608060405234801561000f575f80fd5b50600436106100f0575f3560e01c806363a1bf9211610093578063b88d4fde11610063578063b88d4fde146101f9578063c87b56dd1461020c578063d0def5211461021f578063e985e9c514610232575f80fd5b806363a1bf92146101aa57806370a08231146101bd57806395d89b41146101de578063a22cb465146101e6575f80fd5b8063095ea7b3116100ce578063095ea7b31461015c57806323b872dd1461017157806342842e0e146101845780636352211e14610197575f80fd5b806301ffc9a7146100f457806306fdde031461011c578063081812fc14610131575b5f80fd5b610107610102366004610fb8565b610245565b60405190151581526020015b60405180910390f35b61012461026f565b6040516101139190611001565b61014461013f366004611013565b6102ff565b6040516001600160a01b039091168152602001610113565b61016f61016a366004611045565b610326565b005b61016f61017f36600461106d565b610335565b61016f61019236600461106d565b6103c3565b6101446101a5366004611013565b6103e2565b61016f6101b83660046110a7565b6103ec565b6101d06101cb3660046110c7565b610407565b604051908152602001610113565b61012461044c565b61016f6101f43660046110e0565b61045b565b61016f6102073660046111a4565b610466565b61012461021a366004611013565b61047e565b6101d061022d36600461121b565b6104f7565b610107610240366004611279565b61052b565b5f6001600160e01b03198216632483248360e11b1480610269575061026982610558565b92915050565b6060600a805461027e906112aa565b80601f01602080910402602001604051908101604052809291908181526020018280546102aa906112aa565b80156102f55780601f106102cc576101008083540402835291602001916102f5565b820191905f5260205f20905b8154815290600101906020018083116102d857829003601f168201915b5050505050905090565b5f610309826105a7565b505f828152600e60205260409020546001600160a01b0316610269565b6103318282336105df565b5050565b6001600160a01b03821661036357604051633250574960e11b81525f60048201526024015b60405180910390fd5b5f61036f8383336105ec565b9050836001600160a01b0316816001600160a01b0316146103bd576040516364283d7b60e01b81526001600160a01b038086166004830152602482018490528216604482015260640161035a565b50505050565b6103dd83838360405180602001604052805f815250610466565b505050565b5f610269826105a7565b6103f5826105a7565b505f9182526012602052604090912055565b5f6001600160a01b038216610431576040516322718ad960e21b81525f600482015260240161035a565b506001600160a01b03165f908152600d602052604090205490565b6060600b805461027e906112aa565b6103313383836106de565b610471848484610335565b6103bd338585858561077c565b6060610489826105a7565b505f610494836108a4565b5f8481526012602090815260408083205481519283018190529394506104c991016040516020818303038152906040526109af565b905082816040516020016104de9291906112f9565b6040516020818303038152906040529350505050919050565b601180545f918291908261050a8361138b565b91905055905061051a84826109d5565b6105248184610a36565b9392505050565b6001600160a01b039182165f908152600f6020908152604080832093909416825291909152205460ff1690565b5f6001600160e01b031982166380ac58cd60e01b148061058857506001600160e01b03198216635b5e139f60e01b145b8061026957506301ffc9a760e01b6001600160e01b0319831614610269565b5f818152600c60205260408120546001600160a01b03168061026957604051637e27328960e01b81526004810184905260240161035a565b6103dd8383836001610a85565b5f828152600c60205260408120546001600160a01b039081169083161561061857610618818486610b89565b6001600160a01b03811615610652576106335f855f80610a85565b6001600160a01b0381165f908152600d6020526040902080545f190190555b6001600160a01b03851615610680576001600160a01b0385165f908152600d60205260409020805460010190555b5f848152600c602052604080822080546001600160a01b0319166001600160a01b0389811691821790925591518793918516917fddf252ad1be2c89b69c2b068fc378daa952ba7f163c4a11628f55a4df523b3ef91a4949350505050565b6001600160a01b03821661071057604051630b61174360e31b81526001600160a01b038316600482015260240161035a565b6001600160a01b038381165f818152600f6020908152604080832094871680845294825291829020805460ff191686151590811790915591519182527f17307eab39ab6107e8899845ad3d59bd9653f200f220920489ca2b5937696c31910160405180910390a3505050565b6001600160a01b0383163b1561089d57604051630a85bd0160e11b81526001600160a01b0384169063150b7a02906107be9088908890879087906004016113a3565b6020604051808303815f875af19250505080156107f8575060408051601f3d908101601f191682019092526107f5918101906113df565b60015b61085f573d808015610825576040519150601f19603f3d011682016040523d82523d5f602084013e61082a565b606091505b5080515f0361085757604051633250574960e11b81526001600160a01b038516600482015260240161035a565b805181602001fd5b6001600160e01b03198116630a85bd0160e11b1461089b57604051633250574960e11b81526001600160a01b038516600482015260240161035a565b505b5050505050565b60606108af826105a7565b505f82815260106020526040812080546108c8906112aa565b80601f01602080910402602001604051908101604052809291908181526020018280546108f4906112aa565b801561093f5780601f106109165761010080835404028352916020019161093f565b820191905f5260205f20905b81548152906001019060200180831161092257829003601f168201915b505050505090505f61095b60408051602081019091525f815290565b905080515f0361096c575092915050565b81511561099e5780826040516020016109869291906113fa565b60405160208183030381529060405292505050919050565b6109a784610bed565b949350505050565b606061026982604051806060016040528060408152602001611557604091396001610c5d565b6001600160a01b0382166109fe57604051633250574960e11b81525f600482015260240161035a565b5f610a0a83835f6105ec565b90506001600160a01b038116156103dd576040516339e3563760e11b81525f600482015260240161035a565b5f828152601060205260409020610a4d8282611452565b506040518281527ff8e1a15aba9398e019f0b49df1a4fde98ee17ae345cb5f6b5e2c27f5033e8ce79060200160405180910390a15050565b8080610a9957506001600160a01b03821615155b15610b5a575f610aa8846105a7565b90506001600160a01b03831615801590610ad45750826001600160a01b0316816001600160a01b031614155b8015610ae75750610ae5818461052b565b155b15610b105760405163a9fbf51f60e01b81526001600160a01b038416600482015260240161035a565b8115610b585783856001600160a01b0316826001600160a01b03167f8c5be1e5ebec7d5bd14f71427d1e84f3dd0314c0f7b2291e5b200ac8c7c3b92560405160405180910390a45b505b50505f908152600e6020526040902080546001600160a01b0319166001600160a01b0392909216919091179055565b610b94838383610dd8565b6103dd576001600160a01b038316610bc257604051637e27328960e01b81526004810182905260240161035a565b60405163177e802f60e01b81526001600160a01b03831660048201526024810182905260440161035a565b6060610bf8826105a7565b505f610c0e60408051602081019091525f815290565b90505f815111610c2c5760405180602001604052805f815250610524565b80610c3684610e39565b604051602001610c479291906113fa565b6040516020818303038152906040529392505050565b606083515f03610c7b575060408051602081019091525f8152610524565b5f82610cab57600385516004610c91919061150d565b610c9c906002611524565b610ca69190611537565b610cd0565b600385516002610cbb9190611524565b610cc59190611537565b610cd090600461150d565b90505f8167ffffffffffffffff811115610cec57610cec611119565b6040519080825280601f01601f191660200182016040528015610d16576020820181803683370190505b509050600185016020820187885189016020810180515f82525b82841015610d8b576003840193508351603f8160121c168701518653600186019550603f81600c1c168701518653600186019550603f8160061c168701518653600186019550603f8116870151865350600185019450610d30565b905250508515610dcc57600388510660018114610daf5760028114610dc257610dca565b603d6001830353603d6002830353610dca565b603d60018303535b505b50909695505050505050565b5f6001600160a01b038316158015906109a75750826001600160a01b0316846001600160a01b03161480610e115750610e11848461052b565b806109a75750505f908152600e60205260409020546001600160a01b03908116911614919050565b60605f610e4583610ec9565b60010190505f8167ffffffffffffffff811115610e6457610e64611119565b6040519080825280601f01601f191660200182016040528015610e8e576020820181803683370190505b5090508181016020015b5f19016f181899199a1a9b1b9c1cb0b131b232b360811b600a86061a8153600a8504945084610e9857509392505050565b5f8072184f03e93ff9f4daa797ed6e38ed64bf6a1f0160401b8310610f075772184f03e93ff9f4daa797ed6e38ed64bf6a1f0160401b830492506040015b6d04ee2d6d415b85acef81000000008310610f33576d04ee2d6d415b85acef8100000000830492506020015b662386f26fc100008310610f5157662386f26fc10000830492506010015b6305f5e1008310610f69576305f5e100830492506008015b6127108310610f7d57612710830492506004015b60648310610f8f576064830492506002015b600a83106102695760010192915050565b6001600160e01b031981168114610fb5575f80fd5b50565b5f60208284031215610fc8575f80fd5b813561052481610fa0565b5f81518084528060208401602086015e5f602082860101526020601f19601f83011685010191505092915050565b602081525f6105246020830184610fd3565b5f60208284031215611023575f80fd5b5035919050565b80356001600160a01b0381168114611040575f80fd5b919050565b5f8060408385031215611056575f80fd5b61105f8361102a565b946020939093013593505050565b5f805f6060848603121561107f575f80fd5b6110888461102a565b92506110966020850161102a565b929592945050506040919091013590565b5f80604083850312156110b8575f80fd5b50508035926020909101359150565b5f602082840312156110d7575f80fd5b6105248261102a565b5f80604083850312156110f1575f80fd5b6110fa8361102a565b91506020830135801515811461110e575f80fd5b809150509250929050565b634e487b7160e01b5f52604160045260245ffd5b5f8067ffffffffffffffff84111561114757611147611119565b50604051601f19601f85018116603f0116810181811067ffffffffffffffff8211171561117657611176611119565b60405283815290508082840185101561118d575f80fd5b838360208301375f60208583010152509392505050565b5f805f80608085870312156111b7575f80fd5b6111c08561102a565b93506111ce6020860161102a565b925060408501359150606085013567ffffffffffffffff8111156111f0575f80fd5b8501601f81018713611200575f80fd5b61120f8782356020840161112d565b91505092959194509250565b5f806040838503121561122c575f80fd5b6112358361102a565b9150602083013567ffffffffffffffff811115611250575f80fd5b8301601f81018513611260575f80fd5b61126f8582356020840161112d565b9150509250929050565b5f806040838503121561128a575f80fd5b6112938361102a565b91506112a16020840161102a565b90509250929050565b600181811c908216806112be57607f821691505b6020821081036112dc57634e487b7160e01b5f52602260045260245ffd5b50919050565b5f81518060208401855e5f93019283525090919050565b607b60f81b8152701136b2ba30b230ba30afbab934911d101160791b60018201525f61132860128301856112e2565b6201116160ed1b8152721139b2b1b932ba2fb6b2b9b9b0b3b2911d101160691b600382015261135a60168201856112e2565b601160f91b8152607d60f81b600182015260020195945050505050565b634e487b7160e01b5f52601160045260245ffd5b5f6001820161139c5761139c611377565b5060010190565b6001600160a01b03858116825284166020820152604081018390526080606082018190525f906113d590830184610fd3565b9695505050505050565b5f602082840312156113ef575f80fd5b815161052481610fa0565b5f6109a761140883866112e2565b846112e2565b601f8211156103dd57805f5260205f20601f840160051c810160208510156114335750805b601f840160051c820191505b8181101561089d575f815560010161143f565b815167ffffffffffffffff81111561146c5761146c611119565b6114808161147a84546112aa565b8461140e565b6020601f8211600181146114b2575f831561149b5750848201515b5f19600385901b1c1916600184901b17845561089d565b5f84815260208120601f198516915b828110156114e157878501518255602094850194600190920191016114c1565b50848210156114fe57868401515f19600387901b60f8161c191681555b50505050600190811b01905550565b808202811582820484141761026957610269611377565b8082018082111561026957610269611377565b5f8261155157634e487b7160e01b5f52601260045260245ffd5b50049056fe4142434445464748494a4b4c4d4e4f505152535455565758595a6162636465666768696a6b6c6d6e6f707172737475767778797a303132333435363738392b2fa2646970667358221220cced69c2fc79244136d021f81f1c1472c2c460e3416c19e3fd9f5e78677ef35364736f6c634300081a0033",
    "linkReferences": {}
  },
  "methodIdentifiers": {
    "approve(address,uint256)": "095ea7b3",
    "balanceOf(address)": "70a08231",
    "getApproved(uint256)": "081812fc",
    "isApprovedForAll(address,address)": "e985e9c5",
    "mint(address,string)": "d0def521",
    "name()": "06fdde03",
    "ownerOf(uint256)": "6352211e",
    "safeTransferFrom(address,address,uint256)": "42842e0e",
    "safeTransferFrom(address,address,uint256,bytes)": "b88d4fde",
    "setApprovalForAll(address,bool)": "a22cb465",
    "setSecretMessage(uint256,uint256)": "63a1bf92",
    "supportsInterface(bytes4)": "01ffc9a7",
    "symbol()": "95d89b41",
    "tokenURI(uint256)": "c87b56dd",
    "transferFrom(address,address,uint256)": "23b872dd"
  },
  "id": 32
}